{
  "_format": "hh-sol-artifact-1",
  "contractName": "NFTMarket",
  "sourceName": "ethereum/contracts/nft-market.sol",
  "abi": [
    {
      "inputs": [],
      "stateMutability": "nonpayable",
      "type": "constructor"
    },
    {
      "anonymous": false,
      "inputs": [
        {
          "indexed": true,
          "internalType": "uint256",
          "name": "itemId",
          "type": "uint256"
        },
        {
          "indexed": true,
          "internalType": "address",
          "name": "nftContract",
          "type": "address"
        },
        {
          "indexed": true,
          "internalType": "uint256",
          "name": "tokenId",
          "type": "uint256"
        },
        {
          "indexed": false,
          "internalType": "address payable",
          "name": "owner",
          "type": "address"
        },
        {
          "indexed": false,
          "internalType": "address payable",
          "name": "seller",
          "type": "address"
        },
        {
          "indexed": false,
          "internalType": "uint256",
          "name": "price",
          "type": "uint256"
        },
        {
          "indexed": false,
          "internalType": "bool",
          "name": "sold",
          "type": "bool"
        }
      ],
      "name": "MarketItemCreated",
      "type": "event"
    },
    {
      "inputs": [
        {
          "internalType": "address",
          "name": "nftContract",
          "type": "address"
        },
        {
          "internalType": "uint256",
          "name": "tokenId",
          "type": "uint256"
        },
        {
          "internalType": "uint256",
          "name": "price",
          "type": "uint256"
        }
      ],
      "name": "createMarketItem",
      "outputs": [],
      "stateMutability": "payable",
      "type": "function"
    },
    {
      "inputs": [
        {
          "internalType": "address",
          "name": "nftContract",
          "type": "address"
        },
        {
          "internalType": "uint256",
          "name": "itemId",
          "type": "uint256"
        }
      ],
      "name": "createMarketSale",
      "outputs": [],
      "stateMutability": "payable",
      "type": "function"
    },
    {
      "inputs": [],
      "name": "getItemsCreated",
      "outputs": [
        {
          "components": [
            {
              "internalType": "uint256",
              "name": "itemId",
              "type": "uint256"
            },
            {
              "internalType": "address",
              "name": "nftContract",
              "type": "address"
            },
            {
              "internalType": "uint256",
              "name": "tokenId",
              "type": "uint256"
            },
            {
              "internalType": "address payable",
              "name": "seller",
              "type": "address"
            },
            {
              "internalType": "address payable",
              "name": "owner",
              "type": "address"
            },
            {
              "internalType": "uint256",
              "name": "price",
              "type": "uint256"
            },
            {
              "internalType": "bool",
              "name": "sold",
              "type": "bool"
            }
          ],
          "internalType": "struct NFTMarket.MarketItem[]",
          "name": "",
          "type": "tuple[]"
        }
      ],
      "stateMutability": "view",
      "type": "function"
    },
    {
      "inputs": [],
      "name": "getMarketItems",
      "outputs": [
        {
          "components": [
            {
              "internalType": "uint256",
              "name": "itemId",
              "type": "uint256"
            },
            {
              "internalType": "address",
              "name": "nftContract",
              "type": "address"
            },
            {
              "internalType": "uint256",
              "name": "tokenId",
              "type": "uint256"
            },
            {
              "internalType": "address payable",
              "name": "seller",
              "type": "address"
            },
            {
              "internalType": "address payable",
              "name": "owner",
              "type": "address"
            },
            {
              "internalType": "uint256",
              "name": "price",
              "type": "uint256"
            },
            {
              "internalType": "bool",
              "name": "sold",
              "type": "bool"
            }
          ],
          "internalType": "struct NFTMarket.MarketItem[]",
          "name": "",
          "type": "tuple[]"
        }
      ],
      "stateMutability": "view",
      "type": "function"
    },
    {
      "inputs": [],
      "name": "getMyNFTs",
      "outputs": [
        {
          "components": [
            {
              "internalType": "uint256",
              "name": "itemId",
              "type": "uint256"
            },
            {
              "internalType": "address",
              "name": "nftContract",
              "type": "address"
            },
            {
              "internalType": "uint256",
              "name": "tokenId",
              "type": "uint256"
            },
            {
              "internalType": "address payable",
              "name": "seller",
              "type": "address"
            },
            {
              "internalType": "address payable",
              "name": "owner",
              "type": "address"
            },
            {
              "internalType": "uint256",
              "name": "price",
              "type": "uint256"
            },
            {
              "internalType": "bool",
              "name": "sold",
              "type": "bool"
            }
          ],
          "internalType": "struct NFTMarket.MarketItem[]",
          "name": "",
          "type": "tuple[]"
        }
      ],
      "stateMutability": "view",
      "type": "function"
    },
    {
      "inputs": [],
      "name": "listingPrice",
      "outputs": [
        {
          "internalType": "uint256",
          "name": "",
          "type": "uint256"
        }
      ],
      "stateMutability": "view",
      "type": "function"
    }
  ],
  "bytecode": "0x608060405266038d7ea4c6800060045534801561001b57600080fd5b50600160008190555033600360006101000a81548173ffffffffffffffffffffffffffffffffffffffff021916908373ffffffffffffffffffffffffffffffffffffffff160217905550611982806100746000396000f3fe6080604052600436106100555760003560e01c806329aa3a421461005a57806358eb2df514610085578063629cb2e4146100a1578063c23b139e146100cc578063c78f19f9146100e8578063e8b08f0414610113575b600080fd5b34801561006657600080fd5b5061006f61013e565b60405161007c91906115cb565b60405180910390f35b61009f600480360381019061009a91906112f8565b61046a565b005b3480156100ad57600080fd5b506100b66107ce565b6040516100c391906115cb565b60405180910390f35b6100e660048036038101906100e191906112bc565b610b7e565b005b3480156100f457600080fd5b506100fd610e37565b60405161010a919061166d565b60405180910390f35b34801561011f57600080fd5b50610128610e3d565b60405161013591906115cb565b60405180910390f35b6060600061014c60016111ed565b9050600061015a60026111ed565b61016460016111ed565b61016e9190611728565b90506000808267ffffffffffffffff8111156101b3577f4e487b7100000000000000000000000000000000000000000000000000000000600052604160045260246000fd5b6040519080825280602002602001820160405280156101ec57816020015b6101d9611211565b8152602001906001900390816101d15790505b50905060005b8481101561045f57600073ffffffffffffffffffffffffffffffffffffffff166005600060018461022391906116d2565b815260200190815260200160002060040160009054906101000a900473ffffffffffffffffffffffffffffffffffffffff1673ffffffffffffffffffffffffffffffffffffffff16141561044c5760006005600060018461028491906116d2565b81526020019081526020016000206000015490506000600560008381526020019081526020016000209050806040518060e0016040529081600082015481526020016001820160009054906101000a900473ffffffffffffffffffffffffffffffffffffffff1673ffffffffffffffffffffffffffffffffffffffff1673ffffffffffffffffffffffffffffffffffffffff168152602001600282015481526020016003820160009054906101000a900473ffffffffffffffffffffffffffffffffffffffff1673ffffffffffffffffffffffffffffffffffffffff1673ffffffffffffffffffffffffffffffffffffffff1681526020016004820160009054906101000a900473ffffffffffffffffffffffffffffffffffffffff1673ffffffffffffffffffffffffffffffffffffffff1673ffffffffffffffffffffffffffffffffffffffff168152602001600582015481526020016006820160009054906101000a900460ff16151515158152505084868151811061042f577f4e487b7100000000000000000000000000000000000000000000000000000000600052603260045260246000fd5b602002602001018190525060018561044791906116d2565b945050505b8080610457906117b6565b9150506101f2565b508094505050505090565b600260005414156104b0576040517f08c379a00000000000000000000000000000000000000000000000000000000081526004016104a79061162d565b60405180910390fd5b6002600081905550600081116104fb576040517f08c379a00000000000000000000000000000000000000000000000000000000081526004016104f29061164d565b60405180910390fd5b600454341461053f576040517f08c379a00000000000000000000000000000000000000000000000000000000081526004016105369061160d565b60405180910390fd5b61054960016111fb565b600061055560016111ed565b90506040518060e001604052808281526020018573ffffffffffffffffffffffffffffffffffffffff1681526020018481526020013373ffffffffffffffffffffffffffffffffffffffff168152602001600073ffffffffffffffffffffffffffffffffffffffff16815260200183815260200160001515815250600560008381526020019081526020016000206000820151816000015560208201518160010160006101000a81548173ffffffffffffffffffffffffffffffffffffffff021916908373ffffffffffffffffffffffffffffffffffffffff1602179055506040820151816002015560608201518160030160006101000a81548173ffffffffffffffffffffffffffffffffffffffff021916908373ffffffffffffffffffffffffffffffffffffffff16021790555060808201518160040160006101000a81548173ffffffffffffffffffffffffffffffffffffffff021916908373ffffffffffffffffffffffffffffffffffffffff16021790555060a0820151816005015560c08201518160060160006101000a81548160ff0219169083151502179055509050508373ffffffffffffffffffffffffffffffffffffffff166323b872dd3330866040518463ffffffff1660e01b815260040161073693929190611594565b600060405180830381600087803b15801561075057600080fd5b505af1158015610764573d6000803e3d6000fd5b50505050828473ffffffffffffffffffffffffffffffffffffffff16827f045dfa01dcba2b36aba1d3dc4a874f4b0c5d2fbeb8d2c4b34a7d88c8d8f929d13360008760006040516107b8949392919061154f565b60405180910390a4506001600081905550505050565b606060006107dc60016111ed565b905060008060005b83811015610885573373ffffffffffffffffffffffffffffffffffffffff166005600060018461081491906116d2565b815260200190815260200160002060040160009054906101000a900473ffffffffffffffffffffffffffffffffffffffff1673ffffffffffffffffffffffffffffffffffffffff1614156108725760018361086f91906116d2565b92505b808061087d906117b6565b9150506107e4565b5060008267ffffffffffffffff8111156108c8577f4e487b7100000000000000000000000000000000000000000000000000000000600052604160045260246000fd5b60405190808252806020026020018201604052801561090157816020015b6108ee611211565b8152602001906001900390816108e65790505b50905060005b84811015610b73573373ffffffffffffffffffffffffffffffffffffffff166005600060018461093791906116d2565b815260200190815260200160002060040160009054906101000a900473ffffffffffffffffffffffffffffffffffffffff1673ffffffffffffffffffffffffffffffffffffffff161415610b605760006005600060018461099891906116d2565b81526020019081526020016000206000015490506000600560008381526020019081526020016000209050806040518060e0016040529081600082015481526020016001820160009054906101000a900473ffffffffffffffffffffffffffffffffffffffff1673ffffffffffffffffffffffffffffffffffffffff1673ffffffffffffffffffffffffffffffffffffffff168152602001600282015481526020016003820160009054906101000a900473ffffffffffffffffffffffffffffffffffffffff1673ffffffffffffffffffffffffffffffffffffffff1673ffffffffffffffffffffffffffffffffffffffff1681526020016004820160009054906101000a900473ffffffffffffffffffffffffffffffffffffffff1673ffffffffffffffffffffffffffffffffffffffff1673ffffffffffffffffffffffffffffffffffffffff168152602001600582015481526020016006820160009054906101000a900460ff161515151581525050848681518110610b43577f4e487b7100000000000000000000000000000000000000000000000000000000600052603260045260246000fd5b6020026020010181905250600185610b5b91906116d2565b945050505b8080610b6b906117b6565b915050610907565b508094505050505090565b60026000541415610bc4576040517f08c379a0000000000000000000000000000000000000000000000000000000008152600401610bbb9061162d565b60405180910390fd5b6002600081905550600060056000838152602001908152602001600020600501549050600060056000848152602001908152602001600020600201549050813414610c44576040517f08c379a0000000000000000000000000000000000000000000000000000000008152600401610c3b906115ed565b60405180910390fd5b6005600084815260200190815260200160002060030160009054906101000a900473ffffffffffffffffffffffffffffffffffffffff1673ffffffffffffffffffffffffffffffffffffffff166108fc349081150290604051600060405180830381858888f19350505050158015610cc0573d6000803e3d6000fd5b508373ffffffffffffffffffffffffffffffffffffffff166323b872dd3033846040518463ffffffff1660e01b8152600401610cfe93929190611594565b600060405180830381600087803b158015610d1857600080fd5b505af1158015610d2c573d6000803e3d6000fd5b50505050336005600085815260200190815260200160002060040160006101000a81548173ffffffffffffffffffffffffffffffffffffffff021916908373ffffffffffffffffffffffffffffffffffffffff16021790555060016005600085815260200190815260200160002060060160006101000a81548160ff021916908315150217905550610dbe60026111fb565b600360009054906101000a900473ffffffffffffffffffffffffffffffffffffffff1673ffffffffffffffffffffffffffffffffffffffff166108fc6004549081150290604051600060405180830381858888f19350505050158015610e28573d6000803e3d6000fd5b50505060016000819055505050565b60045481565b60606000610e4b60016111ed565b905060008060005b83811015610ef4573373ffffffffffffffffffffffffffffffffffffffff1660056000600184610e8391906116d2565b815260200190815260200160002060030160009054906101000a900473ffffffffffffffffffffffffffffffffffffffff1673ffffffffffffffffffffffffffffffffffffffff161415610ee157600183610ede91906116d2565b92505b8080610eec906117b6565b915050610e53565b5060008267ffffffffffffffff811115610f37577f4e487b7100000000000000000000000000000000000000000000000000000000600052604160045260246000fd5b604051908082528060200260200182016040528015610f7057816020015b610f5d611211565b815260200190600190039081610f555790505b50905060005b848110156111e2573373ffffffffffffffffffffffffffffffffffffffff1660056000600184610fa691906116d2565b815260200190815260200160002060030160009054906101000a900473ffffffffffffffffffffffffffffffffffffffff1673ffffffffffffffffffffffffffffffffffffffff1614156111cf5760006005600060018461100791906116d2565b81526020019081526020016000206000015490506000600560008381526020019081526020016000209050806040518060e0016040529081600082015481526020016001820160009054906101000a900473ffffffffffffffffffffffffffffffffffffffff1673ffffffffffffffffffffffffffffffffffffffff1673ffffffffffffffffffffffffffffffffffffffff168152602001600282015481526020016003820160009054906101000a900473ffffffffffffffffffffffffffffffffffffffff1673ffffffffffffffffffffffffffffffffffffffff1673ffffffffffffffffffffffffffffffffffffffff1681526020016004820160009054906101000a900473ffffffffffffffffffffffffffffffffffffffff1673ffffffffffffffffffffffffffffffffffffffff1673ffffffffffffffffffffffffffffffffffffffff168152602001600582015481526020016006820160009054906101000a900460ff1615151515815250508486815181106111b2577f4e487b7100000000000000000000000000000000000000000000000000000000600052603260045260246000fd5b60200260200101819052506001856111ca91906116d2565b945050505b80806111da906117b6565b915050610f76565b508094505050505090565b600081600001549050919050565b6001816000016000828254019250508190555050565b6040518060e0016040528060008152602001600073ffffffffffffffffffffffffffffffffffffffff16815260200160008152602001600073ffffffffffffffffffffffffffffffffffffffff168152602001600073ffffffffffffffffffffffffffffffffffffffff168152602001600081526020016000151581525090565b6000813590506112a18161191e565b92915050565b6000813590506112b681611935565b92915050565b600080604083850312156112cf57600080fd5b60006112dd85828601611292565b92505060206112ee858286016112a7565b9150509250929050565b60008060006060848603121561130d57600080fd5b600061131b86828701611292565b935050602061132c868287016112a7565b925050604061133d868287016112a7565b9150509250925092565b600061135383836114a3565b60e08301905092915050565b6113688161176e565b82525050565b6113778161176e565b82525050565b6113868161175c565b82525050565b6113958161175c565b82525050565b60006113a682611698565b6113b081856116b0565b93506113bb83611688565b8060005b838110156113ec5781516113d38882611347565b97506113de836116a3565b9250506001810190506113bf565b5085935050505092915050565b61140281611780565b82525050565b61141181611780565b82525050565b60006114246040836116c1565b915061142f8261182e565b604082019050919050565b60006114476024836116c1565b91506114528261187d565b604082019050919050565b600061146a601f836116c1565b9150611475826118cc565b602082019050919050565b600061148d601c836116c1565b9150611498826118f5565b602082019050919050565b60e0820160008201516114b96000850182611531565b5060208201516114cc602085018261137d565b5060408201516114df6040850182611531565b5060608201516114f2606085018261135f565b506080820151611505608085018261135f565b5060a082015161151860a0850182611531565b5060c082015161152b60c08501826113f9565b50505050565b61153a816117ac565b82525050565b611549816117ac565b82525050565b6000608082019050611564600083018761136e565b611571602083018661136e565b61157e6040830185611540565b61158b6060830184611408565b95945050505050565b60006060820190506115a9600083018661138c565b6115b6602083018561138c565b6115c36040830184611540565b949350505050565b600060208201905081810360008301526115e5818461139b565b905092915050565b6000602082019050818103600083015261160681611417565b9050919050565b600060208201905081810360008301526116268161143a565b9050919050565b600060208201905081810360008301526116468161145d565b9050919050565b6000602082019050818103600083015261166681611480565b9050919050565b60006020820190506116826000830184611540565b92915050565b6000819050602082019050919050565b600081519050919050565b6000602082019050919050565b600082825260208201905092915050565b600082825260208201905092915050565b60006116dd826117ac565b91506116e8836117ac565b9250827fffffffffffffffffffffffffffffffffffffffffffffffffffffffffffffffff0382111561171d5761171c6117ff565b5b828201905092915050565b6000611733826117ac565b915061173e836117ac565b925082821015611751576117506117ff565b5b828203905092915050565b60006117678261178c565b9050919050565b60006117798261178c565b9050919050565b60008115159050919050565b600073ffffffffffffffffffffffffffffffffffffffff82169050919050565b6000819050919050565b60006117c1826117ac565b91507fffffffffffffffffffffffffffffffffffffffffffffffffffffffffffffffff8214156117f4576117f36117ff565b5b600182019050919050565b7f4e487b7100000000000000000000000000000000000000000000000000000000600052601160045260246000fd5b7f506c65617365207375626d6974207468652061736b696e67207072696365206960008201527f6e206f7264657220746f20636f6d706c65746520746865207075726368617365602082015250565b7f5072696365206d75737420626520657175616c20746f206c697374696e67207060008201527f7269636500000000000000000000000000000000000000000000000000000000602082015250565b7f5265656e7472616e637947756172643a207265656e7472616e742063616c6c00600082015250565b7f5072696365206d757374206265206174206c6561737420312077656900000000600082015250565b6119278161175c565b811461193257600080fd5b50565b61193e816117ac565b811461194957600080fd5b5056fea2646970667358221220b4c12dbf3d3a42a9b02dfca72a2c7e0de68694ef565f0d7253fdb1bfb191011664736f6c63430008040033",
  "linkReferences": {},
  "deployedLinkReferences": {}
}